:020000042001D9
:100000009711FF5F9381012A97020000938282017A
:100010007390523093021000638402007350107C7E
:100020009702000093824211739052301301000036
:1000300063140100138101CD732540F18142130344
:100040000040137101FF6385A2001A918502D5BF9C
:10005000970000009380C00763830000829073259F
:1000600040F181450146ED209300000063830000CC
:100070008290970200009382C20073905230032353
:100080000000F5BF000000008280A14673B3063077
:10009000914263C555001376350011CA230005004F
:1000A0000505FD15E347B0FE731003308280232061
:1000B00005001105F115E34EB0FC7310033082808A
:1000C000232003001103E34D73FE82800684970210
:1000D000FFDF938222F3638C02049702FFDF938297
:1000E00062F2F32740F1A14673B006300A8397030A
:1000F000FFDF938323318A9363037300D1376398BF
:1001000057021703FF5F1303E3EF9713FF5F938318
:10011000E39B630373006D371703FFE7130383EE5D
:100120009703FFE7938303EE63037300513FA280BD
:1001300082800000F322203473231034F323303400
:10014000D5BF411122C6000801003244410182801E
:1001500006849711FF5F9381E114930200006311FD
:10016000550E97720000938262FE1703FF5F130320
:1001700063E99713FF5F93836395638C6200635A0F
:10018000730003A5020091022320A3001103E34A98
:1001900073FE971200009382E2E71703FFE7130351
:1001A00063E69703FFE79383E3E5638C6200635A9A
:1001B000730003A5020091022320A3001103E34A68
:1001C00073FE0F100000971200009382A2E4170341
:1001D000FF5F130323E39703FF5F9383A3E2638C23
:1001E0006200635A730003A5020091022320A3005A
:1001F0001103E34A73FE0F1000001713FF5F130390
:10020000E38C9383C18C6357730023200300110395
:10021000E34D73FE1712FF5F1302428B11C2029669
:10022000172500001305652FEF20002BEF2000326B
:10023000172500001305255CEF20002AEF20205A27
:100240000937FD5673B0463073B04634F32710308B
:10025000372704007D8F09C773B0363073B026305E
:10026000370704007D8F19C373B006184167130761
:100270008702F98F89CBF32700300967D98F7390F4
:100280000730735030000545970500009385052120
:10029000170600001306C6203120EF202025A2807B
:1002A00082808280411106C2F32240F113030000D4
:1002B0006385620073005010F5BFEF00705C9240E0
:0402C00041018280F6
:0C02C800D4020120F802012024030120D0
:1002D400411106C622C40008F16793850720B717A9
:1002E4000080138587A3EF2020540100B2402244EC
:1002F40041018280011106CE22CC0010EF50E02192
:100304002326A4FE8327C4FE99C7B717008013854C
:1003140007A9EF5040290100F24062440561828040
:10032400011106CE22CC0010EF50201F2326A4FE7C
:100334008325C4FEB7170080138507A9EF607031C9
:0A0344000100F2406244056182806E
:1003500044617669642073617973202C20222050D7
:10036000726F6772616D6D696E6720697320667563
:100370006E202120222E2000476F6F642064617957
:100380002021000053697A65206F662063686172DE
:1003900020646174612074797065203D2025640AB1
:1003A000000000000000000000000000000000004D
:1003B000000000000000000000000000000000003D
:1003C000000000000000000000000000000000002D
:1003D000000000000000000000000000000000001D
:1003E000000000000000000000000000000000000D
:1003F00000000000000000000000000000000000FD
:1004000000000000232D302B20000000686C4C0001
:10041000656667454647000030313233343536373C
:100420003839414243444546000000003031323300
:100430003435363738396162636465660000000020
:10044000B61C0000CC1C00008C1C00008C1C0000A2
:100450008C1C00008C1C0000CC1C00008C1C0000BC
:100460008C1C00008C1C00008C1C0000221E000054
:100470000A1D0000F41D00008C1C00008C1C0000F4
:10048000521E00008C1C00000A1D00008C1C000085
:100490008C1C0000FC1D0000A004012000000000D6
:1004A0006C6962676C6F737300000000D82A0120CA
:1004B0007E2C0120622C01200000000000000000C2
:1004C0007A2F0120AE2F0120602B01203A2C012031
:1004D000D62C0120882D0120000000000000000023
:1004E000000000000000000000000000000000000C
:1004F00000000000000000003A2E01200C2A01201C
:1005000000000000000000000000000000000000EB
:100510007C410120E2410120E24101208E41012085
:10052000E2410120E2410120E2410120A0410120FD
:10053000E2410120E2410120E2410120B2410120DB
:10054000E2410120E2410120E2410120E24101209B
:10055000C4410120C4410120C4410120C441012003
:10056000C4410120C4410120C4410120C4410120F3
:10057000C4410120C4410120C4410120C4410120E3
:10058000C4410120C4410120C4410120C4410120D3
:10059000444201207A4501205E4501200000000010
:1005A00000000000000000000000000026430120C1
:1005B0000000000006450120324501200000000037
:1005C000000000000000000000000000000000002B
:1005D000000000000000000000000000CE450120E7
:1005E000000000000000000000000000000000000B
:1005F00000000000EA4501205A460120A0460120E3
:10060000064701207C47012096470120AA47012088
:10061000C4470120D84701203A4801209C480120C6
:10062000FC4801201C490120624901209049012019
:10063000AE490120CE490120C84D01200000000034
:1006400000000000000000000000000000000000AA
:1006500000000000204F012000000000E24F0120B8
:10066000325001200000000000000000B2500120C4
:1006700082500120364C0120D44B012000000000A4
:10068000000000000000000000000000DA5001201F
:1006900076510120125201208652012001000000F3
:1006A00020000000001BB70000366E0101000000B2
:1006B0001F000000030000003F00000001000000D8
:1006C0002000000000366E01006CDC020300000018
:1006D0001F000000020000003F00000001000000B9
:1006E00010000000808D5B00001BB70000000000C0
:1006F0001F000000030000003F0000000100000098
:1007000010000000001BB70000366E010100000061
:100710001F000000020000003F0000000100000078
:100720001000000000366E01006CDC0203000000C7
:100730001F000000020000001F0000000100000078
:1007400008000000808D5B00001BB7000000000067
:100750001F000000030000001F0000000100000057
:1007600008000000001BB70000366E010100000009
:100770001F000000020000001F0000000100000038
:100780000800000000366E01006CDC02030000006F
:100790001F000000020000000F0000000100000028
:1007A00004000000808D5B00001BB700000000000B
:1007B0001F000000030000000F0000000100000007
:1007C00004000000001BB70000366E0101000000AD
:1007D0001F000000020000000F00000001000000E8
:1007E0000400000000366E01006CDC020300000013
:1007F0001F000000020000000700000001000000D0
:1008000002000000808D5B00001BB70000000000AC
:100810001F000000020000000F00000001000000A7
:1008200002000000001BB70000366E01010000004E
:100830001F000000010000000F0000000100000088
:100840000200000000366E01006CDC0203000000B4
:100850001F0000000100000007000000020000006F
:1008600001000000808D5B00001BB700000000004D
:100870001F0000000100000007000000020000004F
:1008800001000000001BB70000366E0101000000EF
:100890001F00000001000000030000000200000033
:1008A0000100000000366E01006CDC020300000055
:1008B0001F00000003000000FFFFFFFF0400000016
:1008C00001000000808D5B00001BB70000000000ED
:1008D0001F000000030000000000000004000000F2
:1008E00001000000001BB70000366E01010000008F
:1008F0001F00000003000000FFFFFFFF04000000D6
:100900000100000000366E01006CDC0203000000F4
:100910001F00000002000000FFFFFFFF06000000B4
:1009200001000000808D5B00AAC2A2000000000050
:10093000230000000100000002000000060000008B
:1009400001000000AAC2A200001BB70000000000C6
:100950001700000003000000FFFFFFFF060000007B
:1009600001000000001BB7000024F400010000009B
:100970002F00000003000000FFFFFFFF0600000043
:10098000010000000024F40080A812010100000012
:100990001700000002000000FFFFFFFF060000003C
:1009A0000100000080A812015585450102000000E9
:1009B0002300000002000000FFFFFFFF080000000E
:1009C00001000000808D5B00001BB70000000000EC
:1009D0001F00000003000000FFFFFFFF08000000F1
:1009E00001000000001BB70000366E01010000008E
:1009F0001F00000002000000FFFFFFFF08000000D2
:100A00000100000000366E01006CDC0203000000F3
:100A10001F00000001000000FFFFFFFF0A000000B0
:100A200001000000808D5B00007C9200000000004F
:100A30002700000003000000FFFFFFFF0A00000086
:100A400001000000007C9200001BB70000000000C5
:100A50001300000002000000FFFFFFFF0A0000007B
:100A600001000000001BB70000F824010100000095
:100A70002700000002000000FFFFFFFF0A00000047
:100A80000100000000F8240100366E0101000000A2
:100A90001300000001000000FFFFFFFF0A0000003C
:100AA0000100000000366E0100F049020300000062
:100AB0002700000001000000FFFFFFFF0C00000006
:100AC00001000000808D5B0000127A000000000031
:100AD0002F00000003000000FFFFFFFF0C000000DC
:100AE0000100000000127A00001BB70000000000A7
:100AF0001700000002000000FFFFFFFF0C000000D5
:100B000001000000001BB7000024F40001000000F9
:100B10002F00000002000000FFFFFFFF0C0000009C
:100B2000010000000024F40000366E010100000006
:100B30001700000001000000FFFFFFFF0C00000095
:100B40000100000000366E0180C3C90103000000EF
:100B50002F00000001000000FFFFFFFF0C0000005D
:100B60000100000080C3C9010048E8010300000043
:100B70002F00000001000000FFFFFFFF0E0000003B
:100B800001000000808D5B00B6A16800000000003D
:100B90003700000003000000FFFFFFFF0E00000011
:100BA00001000000B7A16800001BB70000000000B2
:100BB0001B00000002000000FFFFFFFF0E0000000E
:100BC00001000000001BB7006D43D10001000000D0
:100BD0003700000002000000FFFFFFFF0E000000D2
:100BE000010000006E43D10000366E0101000000DC
:100BF0001B00000001000000FFFFFFFF0E000000CF
:100C00000100000000366E01DB86A2010300000037
:100C10003700000001000000FFFFFFFF1000000090
:100C200001000000808D5B00001BB7000000000089
:100C30001F00000002000000FFFFFFFF1000000087
:100C400001000000001BB70000366E01010000002B
:100C50001F00000001000000FFFFFFFF1200000066
:100C600001000000808D5B00AAC2A200000000000D
:100C70002300000002000000FFFFFFFF1200000041
:100C800001000000ABC2A200001BB7000000000082
:100C90001100000001000000FFFFFFFF1200000034
:100CA00001000000001BB700558545010100000050
:100CB0002300000001000000FFFFFFFF1400000000
:100CC00001000000808D5B00007C920000000000AD
:100CD0002700000002000000FFFFFFFF14000000DB
:100CE00001000000007C9200001BB7000000000023
:100CF0001300000001000000FFFFFFFF14000000D0
:100D000001000000001BB70000F8240101000000F2
:100D10002700000001000000FFFFFFFF1600000099
:100D200001000000808D5B00E82A850000000000C3
:100D30002B00000002000000FFFFFFFF1600000074
:100D400001000000E92A8500001BB7000000000038
:100D50001500000001000000FFFFFFFF160000006B
:100D600001000000001BB700D1550A01010000007E
:100D70002B00000001000000FFFFFFFF1800000033
:100D800001000000808D5B0000127A00000000006E
:100D90002F00000002000000FFFFFFFF180000000E
:100DA0000100000000127A00001BB70000000000E4
:100DB0001700000001000000FFFFFFFF1800000007
:100DC00001000000001BB7000024F4000100000037
:100DD0002F00000001000000FFFFFFFF1A000000CD
:100DE00001000000808D5B0027AE70000000000055
:100DF0003300000002000000FFFFFFFF1A000000A8
:100E00000100000028AE7000001BB70000000000C9
:100E10001900000001000000FFFFFFFF1A000000A2
:100E200001000000001BB7006658E100010000004F
:100E30003300000001000000FFFFFFFF1C00000066
:100E400001000000808D5B00B6A16800000000007A
:100E50003700000002000000FFFFFFFF1C00000041
:100E600001000000B7A16800001BB70000000000EF
:100E70001B00000001000000FFFFFFFF1C0000003E
:100E800001000000001BB7006D43D100010000000D
:100E90003700000001000000FFFFFFFF1E00000000
:100EA00001000000808D5B0000A8610000000000D0
:100EB0003B00000002000000FFFFFFFF1E000000DB
:100EC0000100000000A86100001BB7000000000046
:100ED0001D00000001000000FFFFFFFF1E000000DA
:100EE00001000000001BB7000050C300010000001B
:100EF0003B00000001000000FFFFFFFF200000009A
:100F000001000000808D5B00001BB70000000000A6
:100F10001F00000001000000FFFFFFFFAA55012095
:100F20004E5601201A5A0120BC6201203A6301206A
:100F3000526301206E630120BC630120A063012085
:100F4000D86301200E640120FC650120C2640120E9
:100F5000DA640120F664012044650120286501203F
:100F60006065012096650120E65F0120A65F0120F3
:100F70002C6001205660012082600120C8600120A1
:100F800008610120486101208E610120CE610120AD
:100F9000306201207A62012080640120086601200D
:100FA00028660120C86C0120666A01204269012080
:100FB000A86A0120FE6A01201E6B01201E68012024
:100FC0003E6801205E68012098680120D0680120F9
:100FD0000A69012072690120BC690120EC690120C5
:100FE000366A012000000000000000800853012044
:100FF0008C530120085401207C540120925B012075
:0C100000C05B0120F07001200E71012087
:10108000411106C622C40008B707012013850735A1
:10109000352AB7070120138587370D2A8545B707FD
:1010A000012013854738392081473E85B2402244CC
:1010B000410182805D7122D406D62A842EDA32DC88
:1010C00036DEBAC0BEC2C2C4C6C61705FF5F03255E
:1010D000659D11C51C4D81E72AC6252332450C4567
:1010E0005418228636CEEF003021B250225461616E
:1010F0008280011126CA4AC806CE22CC4EC652C4EE
:10110000AA842E8901C51C4D91E3E5299C4C80449D
:1011100099E32685FD2197F7FFFF9387E72A631C54
:10112000F402C0408357C400A18BB1C71C48A1C7BB
:10113000FD59294A1C4483450900FD17B1E91CC427
:1011400063DE07062286A94526857920FD576308B8
:10115000F502294535A097F7FFFF9387E728631429
:10116000F4008044C1B797F7FFFF9387E723E31BA1
:10117000F4FAC04445BFA2852685392A55D97D5544
:10118000F2406244D2444249B249224A0561828017
:101190001CC4050963D70700184C63CBE7006389BB
:1011A00045011C401387170018C02380B70059B7AA
:1011B000228626851520E31F35F7D1B71C401387FB
:1011C000170018C029472380E70061B7AA851705D3
:1011D000FF5F0325258D31BF011122CC26CA4AC8E5
:1011E00006CE4EC6AA842E89328401C51C4D91E3D9
:1011F000092997F7FFFF9387271D6319F406C0405D
:101200001C4C1CC48357C400A18BC9C31C48BDCF50
:101210001C4808409379F90F1379F90F1D8D5C482C
:101220006346F500A2852685C1242DE51C440505ED
:10123000FD171CC41C401387170018C023803701FA
:101240005C486389A7008357C400858B81CBA9477D
:101250006316F900A2852685412C0DEDF24062440B
:10126000D244B2494A8542490561828097F7FFFF1F
:10127000938787176314F400804459B797F7FFFFEB
:1012800093878712E31EF4F6C0449DBFA28526858E
:1012900021203DDD7D59D9B7411122C426C24AC063
:1012A00006C697F4FE5F83A4E47F2A892E8489C44E
:1012B0009C4C99E32685B12697F7FFFF9387C710CB
:1012C0006317F402C0408317C4001397070193F615
:1012D00087004183ADEA9376070195EA25472320ED
:1012E000E90093E707042316F4007D5571A897F7EA
:1012F000FFFF9387670F6314F4008044E9B797F703
:10130000FFFF9387670AE310F4FCC0446DBF118BA5
:101310000DC74C5889C9930744046384F5004A8576
:10132000CD2B232A04028357C4002322040093F701
:10133000B7FD2316F4001C481CC08357C40093E774
:1013400087002316F4001C4881EF8357C40013075D
:10135000002093F707286385E700A2854A85852941
:101360008317C4001397070193F6170041839DC2AA
:10137000544823240400B306D04014CC144801453B
:1013800081E61377070831FFB240224492440249B4
:101390004101828093762700014691E2504810C4B3
:1013A000F1BF83D7C500011122CC26CA06CE4AC898
:1013B0004EC613F78700AA842E8475E3D84163478D
:1013C000E000B8416344E000014575A858546DDF62
:1013D000856603A90400F58F23A00400A5CF684803
:1013E0008357C400918B99C75C401D8D5C5899C38D
:1013F0003C401D8D5C540C502A8681462685829780
:10140000FD570357C400631DF5009440F54763E39F
:10141000D708B70740208507B3D7D700858BBDCB4A
:101420001C48232204001CC085677D8F19C7FD5707
:101430006314F5009C4091E368C84C5823A0240134
:10144000C1D5930744046384F5002685D921232A56
:1014500004029DBF0C508546014626850297FD5724
:10146000E310F5F89C40ADDF75476385E700594709
:101470006395E70023A0240181BF8357C40093E74D
:1014800007042316F400F2406244D2444249B249B0
:1014900005618280136707042316E400EDB783A972
:1014A0000501E38309F203A905008D8B23A0350113
:1014B00033093941014791E3D84918C4E35620F173
:1014C0001C540C50CA864E8626858297634AA0001B
:1014D0008357C4007D5593E707042316F40065B7CE
:1014E000AA993309A940D9BF9C49B9CF011122CC8F
:1014F00006CE2A8411C51C4D81E72EC61922B2459D
:1015000097F7FFFF938747EC639BF5004C40839769
:10151000C50095C722856244F240056159B597F729
:10152000FFFF938767EC6394F5000C44CDB797F702
:10153000FFFF938767E7E39CF5FC4C44C9BFF2408B
:10154000624401450561828001458280411122C4C7
:1015500006C62A842316B5002317C50023200500DC
:101560002322050023240500232205062328050045
:10157000232A0500232C0500214681451305C505B6
:10158000ED2497170000938787835CD0971700009E
:101590009387E7851CD4971700009387278A5CD42C
:1015A000971700009387E78CB24000D01CD82244E4
:1015B0004101828097050000938545F3B1A2411156
:1015C00026C2130680069384F5FFB384C4024AC082
:1015D0002E8922C406C693854407E92E2A8419C998
:1015E0002320050023222501310508C41386840623
:1015F0008145A52CB24022852244924402494101F2
:1016000082801C4DBDE3411122C406C6970700002D
:10161000938787FA1CD52324050423260504232851
:1016200005049707000083A7679C2A846314F500CC
:1016300085471CCD22851D2848C02285052808C461
:1016400022852D2048C44840014691450137084471
:101650000546A545E53D48440946C945C53D85477C
:10166000B2401CCC2244410182808280411126C2BA
:101670009704000083A484979C4C4AC006C622C4E9
:101680002A8999E32685B53F938484048044DC400D
:10169000FD1763D607009C40B1CF8440C5BF031738
:1016A000C40031E7C1778507232204062320040004
:1016B00023220400232404005CC423280400232ADA
:1016C0000400232C0400214681451305C405712A1A
:1016D000232A0402232C04022324040423260404C2
:1016E000B24022852244924402494101828013047F
:1016F000840679BF91454A85D93588C02A8451FD31
:10170000B1472320F900E9BF797122D44AD04ECEE7
:1017100052CC5AC85EC606D626D256CA2A892E8A06
:10172000130485048149054BFD5B0444832A44006E
:10173000FD1A63D00A0200406DF8B2502254925450
:101740000259624AD24A424BB24B4E85F249456138
:10175000828083D7C400637BFB008397E4006387A8
:101760007701A6854A85029AB3E9A9009384840685
:10177000C1B75971CAD02E898395E500A2D4A6D2EB
:1017800086D63284B68463DC05008317C90023A0A3
:10179000040093F7070895E3930700400DA030007D
:1017A000EF004073E34305FE3247BD67F98F797759
:1017B000BA9793B717009CC0C5B793070004B650FB
:1017C0001CC026549654065901456561828083D712
:1017D000C500011122CC06CE26CA4AC8898B2E84A8
:1017E00089CF930774041CC01CC885475CC8F240AD
:1017F0006244D244424905618280740030002A89E3
:101800008D3FA245AA844A85752201ED8317C40045
:1018100013F7072069FFF19B93E727002316F400D5
:10182000C9B797070000938727D92324F902835764
:10183000C40008C008C893E707082316F400A247AD
:101840005CC8B24789CF8315E4004A85652D01C97C
:101850008357C400F19B93E717002316F400035548
:10186000C400C98C2316940059B73D432A8763737B
:10187000C3029377F700BDEFADE5937606FF3D8A8F
:10188000BA960CC34CC30CC74CC74107E36BD7FED9
:1018900011E28280B306C3408A0697020000969642
:1018A0006780A6002307B700A306B7002306B7008A
:1018B000A305B7002305B700A304B7002304B700AE
:1018C000A303B7002303B700A302B7002302B700A6
:1018D000A301B7002301B700A300B7002300B7009E
:1018E000828093F5F50F93968500D58D939605012B
:1018F000D58D61B793962700970200009696868251
:10190000E78086FA9680C1171D8F3E96E374C3F870
:10191000A5B7C5C183A7C5FF011122CC06CE13848C
:10192000C5FF63D307003E942AC6912D17F7FE5FCB
:101930001307C7191C43324581EB2322040000C35F
:101940006244F24005612DAD637DF4001040B306A2
:10195000C4006396D7009443DC43B29614C05CC0C5
:10196000F9BF3E87DC4399C3E37DF4FE144333069D
:10197000D700631F86001040B29614C33306D70009
:10198000E390C7FC9043DC43B29614C35CC34DBFE5
:101990006375C400B1471CC165B71040B306C400ED
:1019A0006396D7009443DC43B29614C05CC040C336
:1019B00041BF8280011126CA93843500F1984AC83C
:1019C00006CE22CC4EC6A104B1472A8963F4F404A2
:1019D000B14463E3B4044A855D2397F6FE5F9386C2
:1019E000E60E98423A8421E417F4FE5F1304440E95
:1019F0001C4089E781454A85512E08C0A6854A8545
:101A00007126FD5963183507B1472320F9004A852F
:101A1000852B31A0E3DF04FAB1472320F90001450B
:101A2000F2406244D2444249B249056182801C407E
:101A3000858F63CE07022D466376F6001CC03E9468
:101A400004C029A05C40631287029CC24A850D2B0A
:101A50001305B4009307440061993307F540E3018F
:101A6000F5FC3A94898F1CC065BF5CC3C5B722875B
:101A7000404095BF130435007198E30385FCB3051E
:101A8000A4404A852126E31D35FBBDBF1C46FD173A
:101A90001CC663DA0700184E63C5E700A9476394C4
:101AA000F5006FF06FF31C422E851387170018C2E4
:101AB0002380B7008280011122CC26CA4AC84EC6B4
:101AC00052C406CE2A89AE893284B304D6007D5A28
:101AD00063149400014509A8834504004E864A8595
:101AE00075370504E31645FFF2406244D24442498B
:101AF000B249224A05618280357122CD26CB4AC97E
:101B00004EC706CF52C556C35AC1DEDEE2DCE6DA66
:101B1000AA89AE843289368401C51C4D91E3D5343F
:101B200097F7FFFF9387478A639BF40C83A44900D0
:101B300083D7C400A18BF5C79C48E5C79307000273
:101B4000A304F1029307000302D22305F10222C687
:101B5000930B500297FAFFFF938A0A8B054C294B8F
:101B60004A848347040099C36390770FB30C2441E0
:101B7000630D2401E6864A86A6854E852D3FFD57D6
:101B80006304F51E9257E6973ED283470400638DA7
:101B9000071CFD571309140002C802CE3ECA02CC2E
:101BA000A309010482D483450900154656855D2E9C
:101BB000C2471304190059E913F7070109C71307AE
:101BC0000002A309E10413F7870009C71307B00255
:101BD000A309E104834609001307A0026380E60815
:101BE000F2474A84814625460347040093051400C2
:101BF000130707FD6379E60AB5CA3ECE85A897E7C5
:101C0000FFFF9387677E6395F40083A489000DB777
:101C100097E7FFFF93874779E39CF4F083A4C9001B
:101C200001BFA6854E85EFF02FE709D97D55FA4013
:101C30006A44DA444A49BA492A4A9A4A0A4BF65B44
:101C4000665CD65C0D618280050421BF3305554179
:101C50003315AC00C98F3EC82289B1B7324793060D
:101C60004700184336C6634907023ACE03470400CB
:101C70009307E002631FF704034714009307A002D1
:101C8000631BF702B2470904138747009C433AC617
:101C900063C107023ECA35A83307E04093E7270037
:101CA0003ACE3EC8E1B7B38767032E848546BA971C
:101CB00025BFFD57C5B7050402CA814681472546A1
:101CC0000347040093051400130707FD6374E60639
:101CD000F1F2834504000D4617E5FFFF1305457338
:101CE000512411CD97E7FFFF938787721D8D9307CE
:101CF0000004B397A700424505045D8D2AC88345BB
:101D00000400194617E5FFFF1305C57013091400F9
:101D10002304B102812C2DC19307000095E74247AF
:101D2000B2471377071009CF91073EC69257D29753
:101D30003ED23DB5B38767032E848546BA9749B72F
:101D40009D07E19BA107D5B7780097060000938611
:101D5000C6D626860C084E8597000000E7000000D6
:101D6000FD572A8AE314F5FC83D7C40093F70704D0
:101D7000E39E07EA125565BD78009706000093863A
:101D8000C6D326860C084E851926D9BF411122C418
:101D90002A842E8597F7FE5F23AE07D206C6B925A3
:101DA000FD576318F50097F7FE5F83A7A7D291C38D
:101DB0001CC0B240224441018280411122C42E84C1
:101DC0008395E50006C6252B634905007C48AA9744
:101DD0007CC8B2402244410182808357C4007D7791
:101DE0007D17F98F2316F400EDB783D7C5000111D5
:101DF00022CC26CA4AC84EC606CE93F70710AA843C
:101E00002E843289B68991C78395E50089460146BB
:101E10000D228357C4007D777D17F98F8315E40069
:101E20002316F4006244F240CE864A86B249424903
:101E30002685D24405613DA8411122C42E84839594
:101E4000E50006C6FD20FD570357C400631BF500DF
:101E5000FD77FD17F98F2316F400B24022444101AB
:101E600082808567D98F2316F40068C8FDB78395F3
:101E7000E50015A8411122C42A842E85B285368634
:101E800097F7FE5F23A807C406C6C523FD5763184E
:101E9000F50097F7FE5F83A7E7C391C31CC0B2406C
:101EA000224441018280411122C42A842E8597F761
:101EB000FE5F23A107C206C6A529FD576318F500DA
:101EC00097F7FE5F83A707C191C31CC0B2402244AD
:101ED00041018280411122C42A842E85B28597F760
:101EE000FE5F23A907BE06C6AD21FD576318F500A6
:101EF00097F7FE5F83A707BE91C31CC0B240224480
:101F000041018280411122C42A842E8597F7FE5F09
:101F100023A207BC06C68D21FD576318F50097F76D
:101F2000FE5F83A727BB91C31CC0B240224441017E
:101F30008280411122C42A842E85B285368697F785
:101F4000FE5F23A907B806C68129FD576318F5006F
:101F500097F7FE5F83A707B891C31CC0B240224425
:101F60004101828093F5F50F2A966314C50001455F
:101F7000828083470500E38DB7FE0505FDB78280AB
:101F80008280797152CC9C493A8A984522D426D2D3
:101F90004ECE56CA06D64AD05AC85EC6AA892E84E4
:101FA000B284B68A63D3E700BA879CC0034734047F
:101FB00019C385079CC01C4093F7070281C79C404A
:101FC00089079CC00329040013796900631A09007A
:101FD000130B9401FD5B5C449840998F634CF904AA
:101FE00083473404B336F0001C4093F70702A5EB97
:101FF00013063404D6854E85029AFD576303F50413
:102000001C4011469840998B544481446397C70003
:10201000B384E64063D3040081441C4418486354ED
:10202000F700998FBE94014969047D5B639824058C
:10203000014509A885465A86D6854E85029A631EB3
:1020400075017D55B250225492540259F249624AA8
:10205000D24A424BB24B456182800509ADBF33077E
:10206000D40013060003A301C70403475404938755
:102070001600A2978906A381E7049DBF85462286A4
:10208000D6854E85029AE30E65FB050945B7797141
:1020900022D426D24AD04ECE06D652CC56CA5AC8E0
:1020A00003C8850193078007AA842E843289B689E4
:1020B00063EE0701930720069386350463ED07015D
:1020C0006305081C93078005630AF812930A240429
:1020D0002301040515A89307D8F993F7F70F554680
:1020E000E366F6FE17E6FFFF1306C6358A07B297CA
:1020F0009C43B29782871C43938A250493864700AA
:102100009C4314C32381F50485475DA29C41084389
:1021100013F60708930545000DC21C410CC363D894
:1021200007001307D002B307F040A301E40417E649
:10213000FFFF1306A62E2948A1A013F607041C4191
:102140000CC371DEC207C187D9BF90411C43137510
:1021500006089385470001C50CC39C4339A013763C
:1021600006040CC37DDA83D707001307F00617E6D1
:10217000FFFF1306A62A6304E80E2948A3010404FE
:10218000584018C4634507000C40ED990CC099E312
:10219000B68A19CFB68A33F70703FD1A3297034779
:1021A00007002380EA003E87B3D70703E37507FFE4
:1021B000A147631EF8001C40858B91CB58401C48FA
:1021C00063C7E70093070003A38FFAFEFD1AB386E7
:1021D000564114C84E87CA867000A285268555339D
:1021E0007D5A631B450D7D55B250225492540259BD
:1021F000F249624AD24A424B45618280A382050578
:1022000017E6FFFF130686210C40084313F8050864
:102210001C411105630D080208C313F7150001C71F
:1022200093E505020CC04148B1FB18401377F7FD58
:1022300018C0A9B79C4193E707029CC19307800788
:10224000A302F40417E6FFFF1306861E75BF13F8FA
:10225000050408C3E30308FCC207C1837DBF21480E
:1022600031BF90411C43CC491378060813854700C1
:102270006306080008C39C438CC301A808C31376F7
:1022800006049C4375DA2390B70023280400B68A1D
:1022900091B71C43D04181459386470014C383AA5C
:1022A00007005685C13101C53305554148C05C4022
:1022B0001CC8A301040439BF14485686CA85268564
:1022C0008299E30245F31C40898B8DE7B24748446D
:1022D000E35CF5F03E8509BF85465686CA852685AE
:1022E0008299E30265F1050A5C443247998FE34520
:1022F000FAFEE9BF014A930A94017D5BF5B74111EB
:1023000022C42A842E85B285368697E7FE5F23A3F2
:10231000077C06C67D20FD576318F50097E7FE5F32
:1023200083A7477B91C31CC0B240224441018280F5
:10233000011106CE22CC00102326A4FE5D222A879E
:10234000930780051CC3FD573E85F240624405613A
:102350008280011106CE22CC00102326A4FE232465
:10236000B4FE41222A87930780FA1CC3FD573E859D
:10237000F240624405618280011122CE00102326C2
:10238000A4FE8327C4FEFD1793B7170093F7F70F3A
:102390003E85724405618280011106CE22CC001078
:1023A0002326A4FE2324B4FE2322C4FE1D2A2A874A
:1023B000930780051CC3FD573E85F24062440561CA
:1023C0008280011106CE22CC00102326A4FE2324F5
:1023D000B4FE2322C4FE31222A87930780051CC342
:1023E000FD573E85F240624405618280797106D6D0
:1023F00022D40018232EA4FCB717008083A747AA75
:102400002326F4FE138701CD9387014D6314F70053
:10241000FD57B9A0B717008003A747AA8327C4FDBB
:102420003E979387014D6376F702B717008003A7A5
:1024300047AA8327C4FD3E97B717008023A2E7AAC7
:102440008325C4FD0325C4FEEFD03FC48327C4FE0B
:1024500001A8B71700801387014D23A2E7AAFD57F3
:102460003E85B250225445618280797106D622D4CD
:102470000018232EA4FC232CB4FC232AC4FC03271D
:10248000C4FD85476309F700A9282A8793078005BB
:102490001CC3FD572DA8832784FD2324F4FE232687
:1024A00004FE39A8032784FE8327C4FEBA9783C796
:1024B00007003E85892E8327C4FE85072326F4FE68
:1024C0000327C4FE832744FDE36EF7FC81473E8566
:1024D000B250225445618280AA8581460146014559
:1024E000E9A017E5FE5F0325E55B8280411122C468
:1024F00006C697070000938747132A8499C381452E
:102500001D2217F5FFFF032565AE1C5591C3829769
:102510002285EF40F041411122C426C217E4FFFF9B
:102520001304C4DB97E4FFFF938444DB058C06C6E9
:10253000098411E4B24022449244410182807D1416
:1025400093172400A6979C438297E5B7411122C4B4
:1025500026C217E4FFFF130464D797E4FFFF9384B8
:10256000E4D6818C4AC006C6898401496315990264
:1025700017E4FFFF130484D597E4FFFF938404D589
:10258000818C89840149631D9900B24022449244A0
:102590000249410182801C40050911048297F9B764
:1025A0001C40050911048297F9BFAA8817E5FE5F50
:1025B000130585521C4191EF17E7FE5F1307875201
:1025C00018C113050000BA8709C51C412324F70868
:1025D000BA87D8437D487D556346E804638D080279
:1025E00003A887086300080413152700429510C14B
:1025F0000323081005463316E6003363C300232087
:1026000068102320D50889466397D8008326481090
:10261000558E2322C810930617000A07D4C3BA9711
:102620008CC701458280797156CA5AC85EC662C499
:1026300006D622D426D24AD04ECE52CC66C22A8B9F
:10264000AE8A97EBFE5F938B2B49054C83A40B005E
:1026500081CCC04083A984081309F4FF0A04338A9B
:1026600089002694635F0900B250225492540259A3
:10267000F249624AD24A424BB24B224C924C4561DB
:102680008280638C0A00639609007D19711A7114A7
:10269000D1BF8327CA07E39A57FFD8405C407D1714
:1026A0006318270323A22401EDD383AC440063887D
:1026B000090083A6091033172C01F98E89EE829741
:1026C000D84083A70B00E31397F9E380F4FCBDBF68
:1026D00023220400D1BF83A649108325CAFF758F2A
:1026E00001E75A858297E9BF2E858297D1BF0111F4
:1026F00006CE22CC0010B717008083A787ADA9EFC4
:10270000B7170080054723ACE7ACB7070120138754
:10271000472DB70701209387872C63F1E704B7079C
:1027200001209387872C2326F4FE31A88327C4FE3B
:102730009C432324F4FE832784FE82978327C4FED0
:1027400091072326F4FE0327C4FEB70701209387D1
:10275000472DE31DF7FC21A0010011A00100F2406C
:10276000624405618280011106CE22CC0010B717A9
:10277000008083A7C7ADA9EFB7170080054723AE38
:10278000E7ACB70701201387872DB7070120938790
:10279000872D63F1E704B70701209387872D232650
:1027A000F4FE31A88327C4FE9C432324F4FE832730
:1027B00084FE82978327C4FE91072326F4FE032715
:1027C000C4FEB70701209387872DE31DF7FC21A0E6
:1027D000010011A00100F2406244056182804111B4
:1027E00006C622C4000821370100B240224441013C
:1027F0008280411106C622C40008B5370100B240EC
:10280000224441018280011106CE22CC00102326F1
:10281000A4FE8325C4FEB7170080138587A32D2847
:10282000AA873E85F240624405618280011106CE8E
:1028300022CC00102326A4FE2324B4FE8327C4FE4A
:102840009C439C43832584FE0325C4FE829701009C
:10285000F240624405618280011106CE22CC001054
:102860002326A4FE2324B4FE8327C4FE9C43DC431A
:10287000832584FE0325C4FE8297AA873E85F24005
:10288000624405618280011106CE22CC001023260D
:10289000A4FE2324B4FE8327C4FE9C43DC4B832583
:1028A00084FE0325C4FE8297AA873E85F2406244D7
:1028B00005618280011122CE00102326A4FE032789
:1028C000C4FEB71700809387C7AA6315F700B70740
:1028D000000211A081473E8572440561828001118A
:1028E00022CE00102326A4FE0327C4FEB7170080C3
:1028F0009387C7AA6314F700894711A081473E85D3
:10290000724405618280011122CE00102326A4FEAC
:102910002324B4FE832784FE91E7B70700809387C2
:10292000070921A8032784FE85476317F700B70727
:1029300000809387070911A081473E857244056195
:102940008280011122CE00102326A4FE2324B4FE8F
:10295000832784FE99E38D4709A8032784FE8547D2
:102960006314F7009D4711A081473E8572440561BD
:1029700082805D7186C6A2C4CAC2CEC052DE56DC59
:102980005ADA5ED862D666D48008232EA4FA83274A
:10299000C4FB3E8505372326A4FC0327C4FCB1678E
:1029A000F117BA979C432324F4FC0327C4FCB167B6
:1029B000E117BA979C432322F4FC0327C4FCB167B8
:1029C000F117BA979C43032784FCE318F7FC83278D
:1029D00084FC3E8C814C93190C000149832744FCF4
:1029E0003E8A814A336B4901B3EB59015A87DE872E
:1029F0003A85BE85B640264416498649725AE25A3F
:102A0000525BC25B325CA25C61618280797106D6E6
:102A100022D44AD24ED00018232EA4FC232CB4FC7E
:102A20002328C4FC232AD4FC8327C4FD2326F4FED8
:102A30008327C4FE3E85BD3D2324A4FE832784FD59
:102A40008E073E87832784FE3E9791679107BA974A
:102A50003E87FD571CC3832784FD8E073E8783274F
:102A600084FE3E979167BA973E87832704FD1CC377
:102A7000832744FD13D907008149832784FD8E07EE
:102A80003E87832784FE3E9791679107BA974A87CE
:102A900098C381473E85B2502254125982594561EC
:102AA0008280011106CE22CC0010232604FEF327DB
:102AB00040F12326F4FE8327C4FE3E85EF40004705
:102AC0002324A4FE032584FEEF40E043AA873E852D
:102AD000F240624405618280397106DE22DC8000AA
:102AE0002326A4FC0325C4FCDD3B2324A4FE83276A
:102AF000C4FC2322F4FE832744FEDC43A9EF2326F3
:102B000004FE81A08325C4FE0325C4FCED3B2320E5
:102B1000A4FE8325C4FE0325C4FC2535232EA4FC76
:102B2000832704FE9C43DC4F8326C4FC0146832597
:102B3000C4FD032504FE82978327C4FE8507232650
:102B4000F4FE0327C4FE832784FEE34DF7FA8327B0
:102B500044FE0547D8C30100F250625421618280CF
:102B6000397106DE22DC80002326A4FC2324B4FC79
:102B70002322C4FC2320D4FCFD572326F4FEEF10AF
:102B8000A0452320A4FE232404FE213F232EA4FCE1
:102B90000325C4FCA933232CA4FC032704FE85478A
:102BA0006308F700832704FE81C78327C4FE49A07A
:102BB000232204FE91A0832544FE0325C4FC513347
:102BC000232AA4FC832544FE0325C4FC2D3B232497
:102BD000A4FE0327C4FD832784FE6318F7000327A0
:102BE00084FC832744FD6300F702232404FE83272B
:102BF00044FE85072322F4FE032744FE832784FD39
:102C0000E34BF7FA11A00100832784FE85C38327D5
:102C100084FE9C43DC4F832604FC032644FC83256E
:102C200084FC032584FE82972326A4FE8327C4FE0A
:102C30003E85F250625421618280797122D600185B
:102C4000232EA4FC232CB4FC232AC4FC2328D4FC6C
:102C5000FD572326F4FE8327C4FE3E85325445618A
:102C60008280011106CE22CC00102326A4FEEF1094
:102C7000A036AA873E85F240624405618280797160
:102C800006D622D40018232EA4FC232CB4FCFD5716
:102C90002326F4FE39352324A4FE832784FE95C31E
:102CA000032784FD854763E0E702832784FE9C4376
:102CB000DC43832584FD032584FE82972326A4FE1E
:102CC00021A0010011A001008327C4FE3E85B2505F
:102CD000225445618280397106DE22DC8000232681
:102CE000A4FC2324B4FCFD572326F4FE832784FC94
:102CF000C9C7232404FE75332320A4FE0325C4FC86
:102D0000F93E232EA4FC232204FE91A0832544FE39
:102D10000325C4FC3D31232CA4FC832544FE03255C
:102D2000C4FCD5362324A4FE032704FE832784FE97
:102D30006318F700032784FC832784FD6300F702F0
:102D4000232404FE832744FE85072322F4FE032761
:102D500044FE8327C4FDE34BF7FA11A0010083274B
:102D600084FE81CF832784FE9C43DC53832584FC2F
:102D7000032584FE82972326A4FE8327C4FE3E8576
:102D8000F250625421618280397106DE22DC8000BB
:102D90002326A4FC2324B4FCFD572326F4FE83271A
:102DA00084FCC9C7232404FEED392320A4FE032597
:102DB000C4FC3536232EA4FC232204FE91A08325D7
:102DC00044FE0325C4FCB53E232CA4FC832544FE0D
:102DD0000325C4FC0D3E2324A4FE032704FE832701
:102DE00084FE6318F700032784FC832784FD6300B7
:102DF000F702232404FE832744FE85072322F4FEE2
:102E0000032744FE8327C4FDE34BF7FA11A001001A
:102E1000832784FE81CF832784FE9C439C57832590
:102E200084FC032584FE82972326A4FE8327C4FE08
:102E30003E85F250625421618280797106D622D497
:102E40000018232EA4FC232CB4FC232AC4FCFD5719
:102E50002326F4FE8327C4FD2324F4FE0325C4FDAA
:102E6000EFF05FA52322A4FE032784FD91476301B1
:102E7000F70C032784FD914763C1E70E032784FD08
:102E80008D476306F706032784FD8D4763C7E70C6C
:102E9000032784FD85476308F700032784FD8947DE
:102EA0006303F7025DA8832744FDD5CB032584FE89
:102EB000EFF03FAC2A87AE87832644FD98C2DCC280
:102EC000232604FE69A8832744FDC1CF832744FD40
:102ED0009C432320F4FE832704FE8A073E87832732
:102EE00044FEBA9723A00700232604FE9DA883274B
:102EF00044FDB5CB832744FD9C432320F4FE832768
:102F000004FE8A073E87832744FEBA973E8785479B
:102F10001CC30F008004832704FE8A073E87832793
:102F200044FEBA979C432326F4FE232604FE25A8DC
:102F3000232604FE832744FD8DCB832744FD9C4339
:102F40002320F4FE832704FE8A073E87832744FE5E
:102F5000BA979C432326F4FE09A8010001A80100AA
:102F600031A0010021A0010011A001008327C4FEAF
:102F70003E85B250225445618280797106D622D4B2
:102F80000018232EA4FC232CB4FCEF30107DAA875C
:102F90002326F4FE9307C4FE3E8689450325C4FD1F
:102FA000693DAA873E85B25022544561828079717D
:102FB00006D622D40018232EA4FC232CB4FCEF3018
:102FC000D079AA872326F4FE9307C4FE3E868D455A
:102FD0000325C4FD9D35AA873E85B2502254456124
:102FE0008280011122CE00102326A4FE0327C4FEF6
:102FF000938741816314F700814711A0FD573E85F7
:10300000724405618280011122CE00102326A4FEA5
:103010000327C4FE938741816317F700B727F400A5
:103020009387074011A081473E85724405618280E5
:10303000011122CE00102326A4FE0327C4FE93878D
:1030400041816317F700B70700809387070911A034
:1030500081473E85724405618280011122CE0010B5
:103060002326A4FE0327C4FE938741816314F7003F
:10307000814711A081473E8572440561828001111C
:1030800022CE00102326A4FE8327C4FE634CF0004A
:10309000B71700800327C4FE0A07938787AABA9749
:1030A0009C4311A081473E857244056182800111D5
:1030B00022CE0010F32740F12326F4FE8327C4FE1E
:1030C0003E85724405618280011122CE0010A14725
:1030D000F3A707302326F4FE0100724405618280C5
:1030E000011122CE0010A147F3B707302326F4FECA
:1030F0000100724405618280011122CE0010A147B7
:10310000F3A747302326F4FE010072440561828054
:10311000011122CE0010A147F3B747302326F4FE59
:103120000100724405618280011122CE00109307D4
:103130000008F3A747302326F4FE0100724405611E
:103140008280011122CE001093070008F3B74730A8
:103150002326F4FE0100724405618280011122CE13
:103160000010856793870780F3A747302326F4FE76
:103170000100724405618280011122CE0010856732
:1031800093870780F3B747302326F4FE010072448B
:1031900005618280797122D60018232EA4FC832732
:1031A000C4FD0547B317F7002326F4FE8327C4FEAA
:1031B000F3A747302324F4FE010032544561828096
:1031C000797122D60018232EA4FC8327C4FD05475D
:1031D000B317F7002326F4FE8327C4FEF3B7473066
:1031E0002324F4FE0100325445618280011106CE91
:1031F00022CC00102326A4FE2324B4FE130540068F
:10320000EF305057011106CE22CC00102326A4FE29
:103210002324B4FE1305800CEF30D0555D7186C6B3
:1032200096C49AC29EC022DE2ADC2EDA32D836D666
:103230003AD43ED242D046CE72CC76CA7AC87EC646
:1032400080081305C012EF30F0521D7186CE96CC67
:103250009ACA9EC8A2C6AAC4AEC2B2C036DE3ADCC2
:103260003EDA42D846D672D476D27AD07ECE80105C
:103270003D3D2A87B71700800A07938787AABA9728
:103280009C432326F4FA8327C4FA85C70325C4FA8E
:1032900045332324A4FA832784FA83A7070E232225
:1032A000F4FA832784FA83A7870D832544FA0D4512
:1032B00082970100F640E6425643C643364426450F
:1032C00096450646F2566257D2574258B258225E89
:1032D000925E025FF24F256173002030797106D64D
:1032E00022D40018232EA4FC232CB4FCC9332A8733
:1032F000B71700800A07938787AABA979C432326AB
:10330000F4FEF32720342324F4FE8327C4FE95C75C
:103310000325C4FE313B2322A4FE832784FE93F7BA
:10332000F73F032744FE9387870E8A07BA979C438B
:103330008325C4FD0325C4FE82970100B2502254A8
:10334000456182801D7186CE96CC9ACA9EC8A2C65F
:10335000AAC4AEC2B2C036DE3ADC3EDA42D846D6A5
:1033600072D476D27AD07ECE801091332A87B71766
:1033700000800A07938787AABA979C432326F4FA0A
:103380008327C4FA85C70325C4FA5D312324A4FA30
:10339000832784FA83A707142322F4FA832784FA65
:1033A00083A78713832544FA1D4582970100F640C1
:1033B000E6425643C6433644264596450646F256EF
:1033C0006257D2574258B258225E925E025FF24F65
:1033D000256173002030011122CE00102326A4FEA7
:1033E0002324B4FE0100724405618280797106D6FF
:1033F00022D40018232EA4FC232CB4FC4D39AA8718
:103400003E85B5392326A4FE0325C4FEEF104029CE
:103410002320A4FE2322B4FE032704FE832744FEB8
:10342000294581453306A70032883338E800B38642
:10343000B700B307D800BE863287B687BA853E8606
:103440000325C4FEEF10202C0100B2502254456128
:10345000828000000000000000000000000000006A
:10346000000000000000000000000000000000005C
:10347000000000000000000000000000000000004C
:10348000197186DE96DC9ADA9ED8A2D6AAD4AED27C
:10349000B2D0B6CEBACCBECAC2C8C6C6F2C4F6C294
:1034A000FAC07EDE000121312A87B71700800A07A3
:1034B000938787AABA979C432326F4FAF3272034EC
:1034C0002324F4FAF32710342322F4FAF3273034B8
:1034D0002320F4FAF3275030232EF4F88327C4FA7C
:1034E000FDCB0325C4FAEFF0BFB4232CA4F8832747
:1034F00084FA93F7F73F232AF4F8832784FA63DEEC
:10350000070A032744F9930700086312F702832789
:1035100084F983A787392326F4F8832784F983A7BE
:1035200007398325C4F8032544F982976DA0032742
:1035300044F9AD4763D7E7008327C4F993F7F7034E
:103540009DEF832684F9032744F9BA878607BA9743
:103550008E07B69783A787092326F4F8832684F974
:10356000032744F9BA878607BA978E07B69783A7C9
:1035700007098325C4F8032544F98297A9A883275E
:10358000C4F913F7F70389476317F704F32770307B
:103590002328F4F8832784F983A7C70D2326F4F89A
:1035A000832704F99C432324F4F8832784F8832594
:1035B000C4F8032544F9829739A8032784F983279F
:1035C00044F99387870E8A07BA979C43832544F969
:1035D0000325C4FA8297F650E6525653C653365422
:1035E000265596550656F6466647D6474648B64887
:1035F000264E964E064FF25F0961730020300000A0
:1036000000000000000000000000000000000000BA
:1036100000000000000000000000000000000000AA
:10362000000000000000000000000000000000009A
:10363000000000000000000000000000000000008A
:10364000000000000000000000000000000000007A
:10365000000000000000000000000000000000006A
:10366000000000000000000000000000000000005A
:1036700000000000000000001D7186CE96CC9ACAA2
:103680009EC8A2C6AAC4AEC2B2C036DE3ADC3EDADA
:1036900042D846D672D476D27AD07ECE8010EFF061
:1036A0001FA12A87B71700800A07938787AABA97AE
:1036B0009C432326F4FA8327C4FA8DC70325C4FA52
:1036C000EFF01F972324A4FA832784FA83A7872186
:1036D0002322F4FA832784FA83A70721832544FA57
:1036E000414582970100F640E6425643C6433644C0
:1036F000264596450646F2566257D2574258B2586A
:10370000225E925E025FF24F2561730020301D71D0
:1037100086CE96CC9ACA9EC8A2C6AAC4AEC2B2C071
:1037200036DE3ADC3EDA42D846D672D476D27AD049
:103730007ECE8010EFF0BF972A87B71700800A0768
:10374000938787AABA979C432326F4FA8327C4FA5F
:103750008DC70325C4FAEFF0BF8D2324A4FA832775
:1037600084FA83A707232322F4FA832784FA83A702
:103770008722832544FA454582970100F640E642B8
:103780005643C6433644264596450646F25662578A
:10379000D2574258B258225E925E025FF24F2561C4
:1037A000730020301D7186CE96CC9ACA9EC8A2C6E0
:1037B000AAC4AEC2B2C036DE3ADC3EDA42D846D641
:1037C00072D476D27AD07ECE8010EFF05F8E2A87C8
:1037D000B71700800A07938787AABA979C432326C6
:1037E000F4FA8327C4FA8DC70325C4FAEFF05F8487
:1037F0002324A4FA832784FA83A787242322F4FAB4
:10380000832784FA83A70724832544FA49458297AE
:103810000100F640E6425643C643364426459645E7
:103820000646F2566257D2574258B258225E925E0E
:10383000025FF24F2561730020301D7186CE96CC59
:103840009ACA9EC8A2C6AAC4AEC2B2C036DE3ADCCC
:103850003EDA42D846D672D476D27AD07ECE801066
:10386000EFF0FF842A87B71700800A07938787AA9B
:10387000BA979C432326F4FA8327C4FA8DC70325FD
:10388000C4FAEFF0EFFA2324A4FA832784FA83A77B
:1038900007262322F4FA832784FA83A78725832522
:1038A00044FA4D4582970100F640E6425643C6432E
:1038B0003644264596450646F2566257D257425838
:1038C000B258225E925E025FF24F25617300203093
:1038D0001D7186CE96CC9ACA9EC8A2C6AAC4AEC294
:1038E000B2C036DE3ADC3EDA42D846D672D476D260
:1038F0007AD07ECE8010EFF08FFB2A87B71700803A
:103900000A07938787AABA979C432326F4FA83274A
:10391000C4FA8DC70325C4FAEFF08FF12324A4FA6B
:10392000832784FA83A787272322F4FA832784FA3C
:1039300083A70727832544FA514582970100F64063
:10394000E6425643C6433644264596450646F25659
:103950006257D2574258B258225E925E025FF24FCF
:103960002561730020301D7186CE96CC9ACA9EC800
:10397000A2C6AAC4AEC2B2C036DE3ADC3EDA42D833
:1039800046D672D476D27AD07ECE8010EFF02FF267
:103990002A87B71700800A07938787AABA979C439C
:1039A0002326F4FA8327C4FA8DC70325C4FAEFF05F
:1039B0002FE82324A4FA832784FA83A70729232244
:1039C000F4FA832784FA83A78728832544FA554588
:1039D00082970100F640E6425643C64336442645E8
:1039E00096450646F2566257D2574258B258225E62
:1039F000925E025FF24F2561730020301D7186CE0A
:103A000096CC9ACA9EC8A2C6AAC4AEC2B2C036DEBE
:103A10003ADC3EDA42D846D672D476D27AD07ECE1E
:103A20008010EFF0CFE82A87B71700800A07938746
:103A300087AABA979C432326F4FA8327C4FA8DC732
:103A40000325C4FAEFF0CFDE2324A4FA832784FAF7
:103A500083A7872A2322F4FA832784FA83A7072AD5
:103A6000832544FA594582970100F640E6425643C1
:103A7000C6433644264596450646F2566257D25707
:103A80004258B258225E925E025FF24F2561730087
:103A900020301D7186CE96CC9ACA9EC8A2C6AAC4F2
:103AA000AEC2B2C036DE3ADC3EDA42D846D672D476
:103AB00076D27AD07ECE8010EFF06FDF2A87B717EC
:103AC00000800A07938787AABA979C432326F4FAB3
:103AD0008327C4FA8DC70325C4FAEFF06FD52324DA
:103AE000A4FA832784FA83A7072C2322F4FA8327D6
:103AF00084FA83A7872B832544FA5D4582970100CA
:103B0000F640E6425643C6433644264596450646A9
:103B1000F2566257D2574258B258225E925E025F06
:103B2000F24F2561730020301D7186CE96CC9ACA63
:103B30009EC8A2C6AAC4AEC2B2C036DE3ADC3EDA25
:103B400042D846D672D476D27AD07ECE8010EFF0AC
:103B50000FD62A87B71700800A07938787AABA97D4
:103B60009C432326F4FA8327C4FA8DC70325C4FA9D
:103B7000EFF00FCC2324A4FA832784FA83A7872DA0
:103B80002322F4FA832784FA83A7072D832544FA96
:103B9000614582970100F640E6425643C6433644EB
:103BA000264596450646F2566257D2574258B258B5
:103BB000225E925E025FF24F2561730020301D711C
:103BC00086CE96CC9ACA9EC8A2C6AAC4AEC2B2C0BD
:103BD00036DE3ADC3EDA42D846D672D476D27AD095
:103BE0007ECE8010EFF0AFCC2A87B71700800A078F
:103BF000938787AABA979C432326F4FA8327C4FAAB
:103C00008DC70325C4FAEFF0AFC22324A4FA83279B
:103C100084FA83A7072F2322F4FA832784FA83A741
:103C2000872E832544FA654582970100F640E642D7
:103C30005643C6433644264596450646F2566257D5
:103C4000D2574258B258225E925E025FF24F25610F
:103C5000730020301D7186CE96CC9ACA9EC8A2C62B
:103C6000AAC4AEC2B2C036DE3ADC3EDA42D846D68C
:103C700072D476D27AD07ECE8010EFF04FC32A87EE
:103C8000B71700800A07938787AABA979C43232611
:103C9000F4FA8327C4FA8DC70325C4FAEFF04FB9AD
:103CA0002324A4FA832784FA83A787302322F4FAF3
:103CB000832784FA83A70730832544FA69458297CE
:103CC0000100F640E6425643C64336442645964533
:103CD0000646F2566257D2574258B258225E925E5A
:103CE000025FF24F2561730020301D7186CE96CCA5
:103CF0009ACA9EC8A2C6AAC4AEC2B2C036DE3ADC18
:103D00003EDA42D846D672D476D27AD07ECE8010B1
:103D1000EFF0EFB92A87B71700800A07938787AAC1
:103D2000BA979C432326F4FA8327C4FA8DC7032548
:103D3000C4FAEFF0EFAF2324A4FA832784FA83A711
:103D400007322322F4FA832784FA83A78731832555
:103D500044FA6D4582970100F640E6425643C64359
:103D60003644264596450646F2566257D257425883
:103D7000B258225E925E025FF24F256173002030DE
:103D80001D7186CE96CC9ACA9EC8A2C6AAC4AEC2DF
:103D9000B2C036DE3ADC3EDA42D846D672D476D2AB
:103DA0007AD07ECE8010EFF08FB02A87B7170080D0
:103DB0000A07938787AABA979C432326F4FA832796
:103DC000C4FA8DC70325C4FAEFF08FA62324A4FA02
:103DD000832784FA83A787332322F4FA832784FA7C
:103DE00083A70733832544FA714582970100F64083
:103DF000E6425643C6433644264596450646F256A5
:103E00006257D2574258B258225E925E025FF24F1A
:103E10002561730020301D7186CE96CC9ACA9EC84B
:103E2000A2C6AAC4AEC2B2C036DE3ADC3EDA42D87E
:103E300046D672D476D27AD07ECE8010EFF02FA7FD
:103E40002A87B71700800A07938787AABA979C43E7
:103E50002326F4FA8327C4FA8DC70325C4FAEFF0AA
:103E60002F9D2324A4FA832784FA83A707352322CE
:103E7000F4FA832784FA83A78734832544FA7545A7
:103E800082970100F640E6425643C6433644264533
:103E900096450646F2566257D2574258B258225EAD
:103EA000925E025FF24F2561730020301D7186CE55
:103EB00096CC9ACA9EC8A2C6AAC4AEC2B2C036DE0A
:103EC0003ADC3EDA42D846D672D476D27AD07ECE6A
:103ED0008010EFF0CF9D2A87B71700800A079387DD
:103EE00087AABA979C432326F4FA8327C4FA8DC77E
:103EF0000325C4FAEFF0CF932324A4FA832784FA8E
:103F000083A787362322F4FA832784FA83A7073608
:103F1000832544FA794582970100F640E6425643EC
:103F2000C6433644264596450646F2566257D25752
:103F30004258B258225E925E025FF24F25617300D2
:103F400020301D7186CE96CC9ACA9EC8A2C6AAC43D
:103F5000AEC2B2C036DE3ADC3EDA42D846D672D4C1
:103F600076D27AD07ECE8010EFF06F942A87B71782
:103F700000800A07938787AABA979C432326F4FAFE
:103F80008327C4FA8DC70325C4FAEFF06F8A232470
:103F9000A4FA832784FA83A707382322F4FA832715
:103FA00084FA83A78737832544FA7D4582970100E9
:103FB000F640E6425643C6433644264596450646F5
:103FC000F2566257D2574258B258225E925E025F52
:103FD000F24F256173002030011122CE0010F3272B
:103FE00050302326F4FE8327C4FE93F7F7032326DD
:103FF000F4FE0327C4FE8D476303F7020327C4FEC4
:104000008D4763E2E7020327C4FE8547630BF70091
:104010000327C4FE89476318F7008D4731A09147F5
:1040200021A0854711A081473E85724405618280A9
:10403000797122D60018232EA4FC232CB4FCF3277C
:1040400050302326F4FE8327C4FE93F707FC232673
:10405000F4FE832784FD2324F4FE0327C4FD914747
:104060006305F7040327C4FD914763E8E7060327C8
:10407000C4FD8D4763E3E7060327C4FD8947637BDF
:10408000F7008327C4FDA1C70327C4FD8547630943
:10409000F702A1A0832784FE739077308327C4FEA4
:1040A00093E72700739057300DA8832784FE739001
:1040B00077308327C4FE93E737007390573031A8D9
:1040C000832784FE93E717007390573039A0832726
:1040D00084FEF19B7390573001000100325445611A
:1040E0008280011122CE00102326A4FE0327C4FEE5
:1040F000FD4763C6E7020327C4FE8D476349F70205
:104100008327C4FE05473317F700C5779387878851
:10411000F98FB337F00093F7F70F81EB09A8032766
:10412000C4FE930700086314F700854719A0010037
:1041300081473E85724405618280797106D622D41A
:104140000018232EA4FC232CB4FC232AC4FC232611
:1041500004FE8327C4FD99E3FD5749A8032784FD86
:10416000FD4763E0E708832784FD13972700B7071F
:10417000012093870751BA979C438287832744FD88
:1041800081C7EFE07FF48DA0EFE09FF5B1A8832712
:1041900044FD81C7EFE05FF681A8EFE07FF7A9A0BB
:1041A000832744FD81C7EFE03FF83DA8EFE07FF9AA
:1041B00025A8832744FD81C7EFE05FFA35A0EFE033
:1041C000BFFB1DA0832744FD99C7832784FD3E853F
:1041D000EFE05FFC11A8832784FD3E85EFE05FFEE2
:1041E00021A0FD572326F4FE8327C4FE3E85B2504E
:1041F000225445618280797122D60018232EA4FCB6
:10420000232CB4FC232AC4FC8327C4FD2326F4FEFC
:10421000032784FDAD4763C2E702832744FD91CFA6
:104220000327C4FE832784FD9387870E8A07BA97E6
:10423000032744FD98C3814711A0FD573E853254A2
:1042400045618280797106D622D40018232EA4FC01
:104250008327C4FD2322F4FE832744FEDC43DDEFE5
:10426000232604FEB9A0832644FE0327C4FEBA8792
:104270008607BA978E07B69723A80708832644FEB9
:104280000327C4FEBA878607BA978E07B69723AA74
:104290000708832644FE0327C4FEBA878607BA9719
:1042A0008E07B69723AC07088327C4FE850723260D
:1042B000F4FE0327C4FEFD47E3D7E7FA232404FEF8
:1042C0001DA0032744FE832784FE9387870E8A0759
:1042D000BA97373701201307C71E98C3832784FE78
:1042E00085072324F4FE032784FEAD47E3DBE7FCC8
:1042F000F32750302320F4FEB7070120938747139C
:10430000032704FE6318F700B73701209385074899
:104310000145393B832744FE0547D8C30100B2500D
:10432000225445618280797106D622D40018232E4A
:10433000A4FC232CB4FC232AC4FC2328D4FC23266D
:1043400004FE8327C4FD2324F4FE032584FD513B92
:10435000AA8799E3D5575DA2032784FD9307000838
:104360006317F7009539AA8799C3CD5741AA8327C8
:1043700044FDB9CF032784FD93070008631FF700AE
:10438000832784FE032744FD23A8E738832784FE80
:10439000032704FD23ACE73885A2832684FE032788
:1043A00084FDBA878607BA978E07B697032744FD20
:1043B00023A8E708832684FE032784FDBA8786079F
:1043C000BA978E07B697032704FD23ACE7082DA202
:1043D000032784FD930700086301F70C032784FD7E
:1043E0009307000863C7E710032784FDFD4763C2F6
:1043F000E710032784FDC1476350F70C032784FDB2
:10440000AD47630BF70A032784FDAD4763C3E70E8F
:10441000032784FD8D476308F700032784FD9D472C
:104420006300F704F9A0832684FE032784FDBA877E
:104430008607BA978E07B697373701201307C72D1F
:1044400023A8E708832684FE032784FDBA8786070E
:10445000BA978E07B697032704FD23AAE70869A831
:10446000832684FE032784FDBA878607BA978E07C2
:10447000B697373701201307C73E23A8E7088326DE
:1044800084FE032784FDBA878607BA978E07B697FE
:10449000032704FD23AAE70885A0832784FE373776
:1044A00001201307673D23A8E738832784FE0327ED
:1044B00004FD23ACE73889A0832684FE032784FD0E
:1044C000BA878607BA978E07B69737370120130742
:1044D000472023A8E708832684FE032784FDBA87A4
:1044E0008607BA978E07B697032704FD23AAE70825
:1044F00021A0D1572326F4FE8327C4FE3E85B25067
:10450000225445618280011106CE22CC0010232660
:10451000A4FE2324B4FE832784FE0546BE8503251E
:10452000C4FEEFF09FC1AA873E85F2406244056158
:104530008280011106CE22CC00102326A4FE232463
:10454000B4FE832784FE0146BE850325C4FEEFF03A
:10455000DFBEAA873E85F240624405618280011178
:1045600006CE22CC00102326A4FEEFF0FFA6AA87D9
:104570003E85F240624405618280011106CE22CC64
:1045800000102326A4FE2324B4FE832784FE99EB87
:10459000B737012093850748032584FEEFF05FA914
:1045A00081470DA0032784FE8547631CF700B7777A
:1045B000012093850700032584FEEFF07FA7814744
:1045C00011A0FD573E85F2406244056182800111D1
:1045D00022CE00102326A4FE2324B4FE2322C4FEF0
:1045E00081473E85724405618280397122DE8000F8
:1045F0002326A4FC014581452324A4FE2326B4FEE2
:10460000F32500B82322B4FEF32500B02320B4FE26
:10461000F32500B8232EB4FC032544FE8325C4FDF6
:10462000E310B5FE832544FE2E88814893170800C9
:104630000147832504FE2E868146B365C7002324E7
:10464000B4FED58F2326F4FE032784FE8327C4FE01
:104650003A85BE85725421618280797106D622D452
:104660004AD24ED00018232EA4FC8327C4FD81E734
:104670000149814921A80325C4FDEFE0DF982326E5
:10468000A4FE8327C4FE3E89FD87BE894A87CE8764
:104690003A85BE85B25022541259825945618280B2
:1046A000797106D622D40018232EA4FC8147014834
:1046B0002320F4FE232204FF0325C4FDEFE05F97CF
:1046C0002326A4FE8327C4FE8DC78327C4FE83A7A9
:1046D000C7132324F4FE832784FE81CF832784FE1F
:1046E0009C43F847930704FE3E868545032584FED8
:1046F0000297032704FE832744FE3A85BE85B25005
:10470000225445618280797106D622D426D20018BF
:10471000232EA4FC2328B4FC232AC4FCFD57232603
:10472000F4FE0325C4FDEFE0BF902324A4FE8327FD
:1047300084FE8DCF832784FE83A7C7132322F4FE34
:10474000832744FE85C7832744FE9C43A44B03254F
:10475000C4FDEFE01F89AA87032604FD832644FDDC
:10476000BE85032544FE82942326A4FE8327C4FE2F
:104770003E85B2502254925445618280011122CE6E
:1047800000102326A4FEB71700809387C7AA3E8592
:10479000724405618280011122CE00102326A4FEFE
:1047A0009D473E85724405618280011122CE001032
:1047B0002326A4FEB71700809387C7AA3E857244BC
:1047C00005618280011122CE00102326A4FE8D47B0
:1047D0003E85724405618280797106D622D4001824
:1047E000232EA4FC232CB4FCFD572326F4FE032522
:1047F000C4FDEFE0FF832324A4FE832784FE9DC72E
:10480000832784FE83A7C70D2322F4FE832744FE5B
:1048100091CF832744FE9C43F847930784FD3E864F
:104820008D45032544FE02972326A4FE8327C4FE5C
:104830003E85B250225445618280797106D622D4D9
:104840000018232EA4FC232CB4FCFD572326F4FED1
:104850000325C4FDEFE0CFFD2324A4FE832784FEBF
:104860009DC7832784FE83A7C70D2322F4FE8327D9
:1048700044FE91CF832744FE9C43F847930784FD71
:104880003E868945032544FE02972326A4FE8327FE
:10489000C4FE3E85B250225445618280797106D6AD
:1048A00022D40018232EA4FC232CB4FC232604FEBF
:1048B0000325C4FDEFE0CFF72324A4FE832784FE65
:1048C0009DC7832784FE83A7C70D2322F4FE832779
:1048D00044FE91CF832744FE9C43F847930784FD11
:1048E0003E869145032544FE02972326A4FE832796
:1048F000C4FE3E85B250225445618280011106CE2D
:1049000022CC00102326A4FE0325C4FEEFE04FF2C4
:10491000AA873E85F240624405618280797106D69D
:1049200022D40018232EA4FC232CB4FC232AC4FC7C
:104930000325C4FDEFE0CFEF2326A4FE8327C4FEAA
:1049400099CB032644FD832584FD0325C4FEEFF0A7
:104950009F8AAA8711A0FD573E85B2502254456117
:104960008280011122CE00102326A4FE2324B4FE4F
:10497000832784FE83D7070013F737008D4763141E
:10498000F700914711A089473E85724405618280F6
:10499000797122D60018232EA4FCF3271034232685
:1049A000F4FE8327C4FE3E853254456182800111A6
:1049B00022CE00102326A4FE2324B4FE832784FEE7
:1049C0007390173481473E857244056182800111DE
:1049D00006CE22CC00102326A4FE0325C4FEEFE061
:1049E000CFE7AA873E85F2406244056182800111CB
:1049F00022CE00102326A4FE0327C4FEB7070080A2
:104A0000938707466315F700B707000C11A081478D
:104A10003E85724405618280011122CE001023265A
:104A2000A4FE0327C4FEB7070080938707466315DB
:104A3000F7009307500311A081473E85724405613A
:104A40008280011122CE00102326A4FE0327C4FE7B
:104A5000B7070080938707466314F7009D4711A0AE
:104A600081473E85724405618280011122CE00108B
:104A70002326A4FE2324B4FE832784FE91E7B707F0
:104A800000809387070911A081473E857244056124
:104A90008280011122CE00102326A4FE2324B4FE1E
:104AA000832784FE99E3AD4711A081473E85724478
:104AB00005618280011122CE00102326A4FE8327E7
:104AC000C4FE99E3814711A0FD573E8572440561FC
:104AD0008280797106D622D40018232EA4FC232CC0
:104AE000B4FC0325C4FD21372326A4FE832784FDBF
:104AF0001397C7008327C4FE3E97B707200091078E
:104B0000BA979C433E85B2502254456182807971A8
:104B100006D622D40018232EA4FC232CB4FC232A6E
:104B2000C4FC0325C4FDE1352326A4FE832784FDB0
:104B30001397C7008327C4FE3E97B707200091074D
:104B4000BA973E87832744FD1CC30100B25022540C
:104B500045618280797106D622D40018232EA4FCE8
:104B6000232CB4FC232AC4FC0325C4FD4935232689
:104B7000A4FE832784FD1397C7008327C4FE3E97B6
:104B8000B7072000BA973E87832744FD1CC381479F
:104B90003E85B250225445618280797106D622D476
:104BA0000018232EA4FC232CB4FC0325C4FD81355E
:104BB0002326A4FE832784FD1397C7008327C4FE02
:104BC0003E97B7072000BA979C433E85B2502254C7
:104BD00045618280797106D622D40018232EA4FC68
:104BE000232CB4FC232AC4FC0325C4FD0935232649
:104BF000A4FE0325C4FDB135AA872324F4FE832730
:104C000084FE85C7032744FD832784FE637FF70066
:104C1000832784FD8A073E878327C4FEBA973E8791
:104C2000832744FD1CC3814711A0FD573E85B25028
:104C3000225445618280797106D622D40018232E31
:104C4000A4FC232CB4FC0325C4FD55332326A4FE69
:104C5000832784FD8A073E878327C4FEBA979C4337
:104C60003E85B250225445618280797106D622D4A5
:104C70000018232EA4FC232CB4FC232AC4FC2328D4
:104C8000D4FC0325C4FDA5332326A4FE832784FD7D
:104C9000139777008327C4FEBA97032744FD15872F
:104CA0000A073E978967BA979C432324F4FE83271B
:104CB00004FD81CF832744FDFD8B0547B317F70023
:104CC0003E87832784FED98F29A8832744FDFD8B47
:104CD0000547B317F70093C7F7FF3E87832784FE86
:104CE000F98F032784FD931677000327C4FE3697B8
:104CF000832644FD95868A06BA96096736971CC3B3
:104D000081473E85B250225445618280011106CE12
:104D100022CC00102326A4FE2324B4FE1305C012C7
:104D2000EF204025797106D622D40018232EA4FC4A
:104D3000232CB4FC832784FD2326F4FEEFE02FB759
:104D4000AA873E85853B2324A4FE832584FE032574
:104D5000C4FE41332322A4FE0325C4FE7539AA876D
:104D60002320F4FE032744FE832704FE6372F70426
:104D70000327C4FE832744FE8A07BA979C478DCB3E
:104D80000327C4FE832744FE8A07BA9703A8870037
:104D9000032644FE8326C4FE032744FEBA87860703
:104DA000BA978E07B69783A7070FBE8532850298FC
:104DB000032644FE832584FE0325C4FE893B0100AF
:104DC000B250225445618280397106DE22DC8000B7
:104DD0002326A4FC8327C4FC2322F4FE832744FE5D
:104DE000DC43639A0712232604FE31AA0325C4FC80
:104DF000EFF09FC22320A4FE8325C4FE0325C4FC3C
:104E0000EFF0BFC6232EA4FC8325C4FE0325C4FCFB
:104E1000EFF03FC8232CA4FC8327C4FD9C439C4394
:104E20000325C4FD8297232404FE85A8814603261A
:104E300084FE8325C4FE032544FE053D032784FE2E
:104E4000832704FE6356F7040146832584FE032569
:104E5000C4FC4933032744FE832784FE8A07BA979C
:104E600023A40700832644FE032784FEBA8786070F
:104E7000BA978E07B69723A6070E832644FE03270C
:104E800084FEBA878607BA978E07B69723A8070EBF
:104E9000832784FE85072324F4FE032784FE9307DB
:104EA000F03FE3D5E7F801468325C4FE0325C4FCA3
:104EB000EFF05FCA8327C4FD9C43DC4F832644FE8A
:104EC0000146832584FD0325C4FD82978327C4FD05
:104ED0009C43D84F832644FEB7570120138647D200
:104EE000832584FD0325C4FD02978327C4FD9C43CD
:104EF000DC53832584FD0325C4FD82978327C4FEEC
:104F000085072326F4FE8327C4FEE351F0EE8327B2
:104F100044FE0547D8C30100F250625421618280EB
:104F2000797106D622D40018232EA4FC232CB4FCBD
:104F3000232AC4FC2328D4FC8327C4FD2326F4FEA3
:104F40000325C4FDEFF05FAD2A87832784FD63C48A
:104F5000E700FD5751A0832744FD9DCF09468325D7
:104F600084FD0325C4FDEFF0FFC60327C4FE83279D
:104F700084FD8A07BA97032744FD98C78326C4FE99
:104F8000032784FDBA878607BA978E07B69703274B
:104F900004FD23A8E70E81A00546832584FD032593
:104FA000C4FDEFF03FC30327C4FE832784FD8A07B7
:104FB000BA97375701201307C7D098C78326C4FE76
:104FC000032784FDBA878607BA978E07B69703270B
:104FD00004FD23A6E70E81473E85B2502254456169
:104FE0008280797106D622D40018232EA4FC232CAB
:104FF000B4FC8327C4FD2326F4FE0325C4FDEFF093
:10500000BFA12A87832784FD63C4E700FD5729A831
:10501000EFE0EF89AA878546032684FDBE85032538
:10502000C4FEEFF09FC481473E85B25022544561D3
:105030008280797106D622D40018232EA4FC232C5A
:10504000B4FC8327C4FD2326F4FE0325C4FDEFF042
:10505000BF9C2A87832784FD63C4E700FD5729A8E6
:10506000EFE0EF84AA878146032684FDBE850325F1
:10507000C4FEEFF09FBF81473E85B2502254456188
:105080008280011106CE22CC00102326A4FE232408
:10509000B4FEEFE0CF81AA87032684FEBE850325F8
:1050A000C4FEEFF03FABAA873E85F2406244056143
:1050B0008280011106CE22CC00102326A4FEEFD060
:1050C0001FFFAA87BE850325C4FEEFF01FADAA8788
:1050D0003E85F240624405618280797106D622D411
:1050E0000018232EA4FC232CB4FC232AC4FC232266
:1050F00004FE8327C4FD2324F4FE0325C4FDEFF042
:10510000BF912A87832744FD63C8E700FD57232208
:10511000F4FE832744FE99A8232604FE99A0832742
:10512000C4FE95C78546032644FD8325C4FE03259A
:1051300084FEEFF09FB3AA8713F717008327C4FEFE
:105140003317F700832744FED98F2322F4FE8327E9
:10515000C4FE85072326F4FE832784FD8583232C44
:10516000F4FC832784FDC5FF832744FE3E85B250AF
:10517000225445618280797106D622D40018232EEC
:10518000A4FC232CB4FC232AC4FC232204FE832782
:10519000C4FD2324F4FE0325C4FDEFF0FF872A8716
:1051A000832744FD63C8E700FD572322F4FE8327CD
:1051B00044FE99A8232604FE99A08327C4FE95C720
:1051C0008146032644FD8325C4FE032584FEEFF0BB
:1051D000DFA9AA8713F717008327C4FE3317F70048
:1051E000832744FED98F2322F4FE8327C4FE85073C
:1051F0002326F4FE832784FD8583232CF4FC832758
:1052000084FDC5FF832744FE3E85B250225445618C
:105210008280797106D622D40018232EA4FC232C78
:10522000B4FC232AC4FC232404FE232604FE91A0FC
:105230008327C4FE8DC7032644FD8325C4FE0325B2
:10524000C4FDEFF03F91AA8713F717008327C4FE30
:105250003317F700832784FED98F2324F4FE832796
:10526000C4FE85072326F4FE832784FD8583232C33
:10527000F4FC832784FDCDFF832784FE3E85B25056
:10528000225445618280011106CE22CC00102326D3
:10529000A4FE2324B4FE832584FE0325C4FEEFF080
:1052A000DF8F81473E85F2406244056182800111B3
:1052B00022CE00102326A4FEB70700809387C706DE
:1052C0003E85724405618280011122CE00102326A2
:1052D000A4FE938701823E8572440561828001119C
:1052E00022CE00102326A4FE81473E85724405612C
:1052F0008280411122C60008B71701209387C7FF9B
:105300003E85324441018280397106DE22DC800014
:105310002326A4FC0325C4FC593F2326A4FE032511
:10532000C4FC753F2324A4FE0325C4FC713F232243
:10533000A4FEC1372320A4FE832704FE9C438325BB
:1053400084FE032544FE8297232EA4FC0327C4FD7C
:10535000B7070040F98F99E3FD5725A08327C4FDC7
:1053600063C40700FD5731A80325C4FEEF10502C7D
:10537000AA873E878327C4FD93F7F7038507B357B2
:10538000F7023E85F250625421618280011106CEFF
:1053900022CC00102326A4FE2324B4FE0325C4FE41
:1053A000A537AA873E85F2406244056182800111DB
:1053B00022CE00102326A4FEB7070080938707069D
:1053C0003E85724405618280011122CE00102326A1
:1053D000A4FE938701823E8572440561828001119B
:1053E00022CE00102326A4FE91473E85724405611B
:1053F0008280411122C60008B71701209387C7FF9A
:105400003E85324441018280397106DE22DC800013
:105410002326A4FC0325C4FC593F2326A4FE032510
:10542000C4FC753F2324A4FE0325C4FC713F232242
:10543000A4FEC1372320A4FE832704FE9C438325BA
:1054400084FE032544FE8297232EA4FC0327C4FD7B
:10545000B7070040F98F99E3FD5721A88327C4FDC2
:1054600063C40700FD5731A00325C4FEEF10501C94
:10547000AA873E85F250625421618280011106CED6
:1054800022CC00102326A4FE2324B4FE0325C4FE50
:10549000A53FAA873E85F2406244056182800111E2
:1054A00022CE00102326A4FEB7170080938787A77B
:1054B0003E85724405618280011122CE00102326B0
:1054C000A4FEB7170080938747A83E857244056104
:1054D0008280011122CE00102326A4FE9387018230
:1054E0003E85724405618280011122CE0010232680
:1054F000A4FEB1473E85724405618280411122C6F7
:105500000008938701823E85324441018280411127
:1055100022C60008A1473E853244410182804111E4
:1055200022C60008B727F400938707403E8532441F
:1055300041018280411122C60008B78700103E85D4
:10554000324441018280411122C60008B717012070
:105550009387C7FF3E85324441018280011122CEEC
:1055600000102326A4FE2324B4FE832784FE9C4738
:105570000327C4FE6369F700832784FEDC47032703
:10558000C4FE63F4E700FD5729A8832784FE9843EF
:105590008327C4FE3307F702832784FEDC43B35717
:1055A000F7023E85724405618280397106DE22DC95
:1055B00080002326A4FC8327C4FC3E85F53D2326DA
:1055C000A4FEB13F2324A4FE99372322A4FE9D37D5
:1055D0002320A4FE032704FE832744FEBA97232E2C
:1055E000F4FC8327C4FCDC433E85EF10007B83275B
:1055F000C4FD9843C167F98F91CB8327C4FD9843BD
:10560000C177FD177D8F8327C4FD98C38327C4FE10
:1056100091CB8327C4FD9843B70702005D8F832792
:10562000C4FD98C38327C4FC9C43D8438327C4FC90
:10563000832584FE3E8502978327C4FC9C473E85D4
:10564000EF10A0750100F2506254216182801D713B
:1056500086CEA2CC80102326A4FA0325C4FAA93D45
:105660002326A4FE0325C4FA1D3D2324A4FE0325FE
:10567000C4FA713D2322A4FE0325C4FA4135232038
:10568000A4FE0325C4FA8D35232EA4FC0325C4FAF9
:105690008935232CA4FC453D232AA4FC832744FD03
:1056A0009C43832544FE032504FE82972328A4FC03
:1056B000832744FD9C438325C4FD032584FD8297F5
:1056C0002326A4FC032704FDC1677D8FC16763788F
:1056D000F700032584FEEF10A075AA87E1A8032731
:1056E00004FDB70702007D8FB70702006365F7006E
:1056F0008327C4FE19A0832784FE3E85EF104073E4
:105700002324A4FC032704FDB70704007D8FB707FB
:1057100004006365F700832784FC69A8832704FDE0
:105720009D8B85072322F4FC832704FD93F7073F15
:105730009183850786072320F4FC032704FD8567F2
:10574000938707C07D8F9307F03F63E4E700FD5721
:1057500095A0032704FD8567938707C0F98FA98368
:105760000547B317F700232EF4FA032784FC832799
:1057700044FC3347F702832704FC3307F7028327EF
:10578000C4FBB347F702232CF4FA8327C4FC13F7B6
:1057900007109307F00F63F5E700832784FB19A830
:1057A000032784FB8327C4FC93F7F7038507860749
:1057B000B357F7023E85F640664425618280397111
:1057C00006DE22DC80002326A4FC2324B4FCFD5743
:1057D0002326F4FEB707008093C7F7FF2324F4FEC7
:1057E000930730042322F4FEB5A08326C4FC83274C
:1057F00044FE13975700B70701209387C769BA97EC
:10580000BE853685EFF09FD52320A4FE032704FE36
:10581000FD57630CF702032704FE832784FC1D8FCA
:105820009357F7413D8FB307F740232EF4FC03272E
:10583000C4FD832784FE635AF700832744FE232692
:10584000F4FE8327C4FD2324F4FE832744FEFD17C2
:105850002322F4FE832744FEE3D907F88327C4FEFE
:105860003E85F250625421618280797106D622D43D
:105870000018232EA4FC232CB4FC232AC4FC832769
:10588000C4FD9C4313F787FF8327C4FD98C3832778
:10589000C4FD9843832744FD9C4B9D8B5D8F8327DC
:1058A000C4FD98C38327C4FD9C4313F7F7C0832727
:1058B000C4FD98C38327C4FD9843832744FDDC4B74
:1058C000920793F7073F5D8F8327C4FD98C3832713
:1058D000C4FD9843FD779387F73F7D8F8327C4FDF1
:1058E00098C38327C4FD9843832744FD9C4F939618
:1058F000A7008567938707C0F58F5D8F8327C4FD59
:1059000098C3832744FDDC4F63DB0702832784FDB4
:105910009C4313E70710832784FD98C3832784FDE6
:105920009C4313F707FC832784FD98C3832784FDDA
:105930009C4313E71700832784FD98C32DA8832772
:1059400084FD9C4313F7F7EF832784FD98C38327D7
:1059500084FD9C4313F707FC832784FD98C38327AA
:1059600084FD9843832744FDDC4F93F7F7035D8F55
:10597000832784FD98C38327C4FD9843B707FCFFA2
:10598000FD177D8F8327C4FD98C3930704FE3E86D1
:105990008545B71700801385C7AAEFD00FCA032625
:1059A00004FE832644FE114581453307A6003A884C
:1059B0003338C800B387B600B306F800B68723248F
:1059C000E4FE2326F4FE19A8930704FE3E868545CF
:1059D000B71700801385C7AAEFD02FC6032704FE90
:1059E000832744FE8326C4FE3E8663ECC6008326DE
:1059F000C4FE3E86E39AC6FC832684FEBA87E3F59E
:105A0000F6FC01008327C4FD9C43E3DD07FE010093
:105A10000100B2502254456182805D7186C6A2C4E5
:105A20008008232EA4FA232CB4FA0325C4FBEFF03C
:105A3000BFA82326A4FE0325C4FBEFF05FA6232402
:105A4000A4FE0325C4FBEFF09FAC2322A4FE032594
:105A5000C4FBEFF07FA92320A4FEEFF0BFAD232EFF
:105A6000A4FC0327C4FD832744FEBA97232CF4FC2F
:105A70000327C4FD832704FEBA97232AF4FC832757
:105A800084FD9843C167F98F91CB832784FD9843A8
:105A9000C177FD177D8F832784FD98C3832784FDFD
:105AA0009843B7070200F98F81C78327C4FE19A066
:105AB000832784FE3E85EF10A0372328A4FC03270C
:105AC00004FDBA878607BA9713D7F7410D8BBA97AB
:105AD00089873E87832784FB63CBE702032704FD86
:105AE000BA878A07BA9713D7F7410D8BBA97898778
:105AF0003E87832784FB634CF700832784FD98430C
:105B0000B70704005D8F832784FD98C381A8832590
:105B100084FB032504FDEFF09FCA2326A4FC032782
:105B2000C4FCFD576303F7028327C4FC1397570097
:105B3000B70701209387C769BA973E86832544FD3E
:105B4000032584FDEFF07FD211A8832784FD9843BD
